{
  "_format": "hh-sol-artifact-1",
  "contractName": "SeemeoGenesis",
  "sourceName": "contracts/BoredApe.sol",
  "abi": [
    {
      "inputs": [
        {
          "internalType": "string",
          "name": "uri",
          "type": "string"
        },
        {
          "internalType": "bytes32",
          "name": "merkleroot",
          "type": "bytes32"
        },
        {
          "internalType": "address",
          "name": "_proxyRegistryAddress",
          "type": "address"
        }
      ],
      "stateMutability": "nonpayable",
      "type": "constructor"
    },
    {
      "anonymous": false,
      "inputs": [
        {
          "indexed": true,
          "internalType": "address",
          "name": "owner",
          "type": "address"
        },
        {
          "indexed": true,
          "internalType": "address",
          "name": "approved",
          "type": "address"
        },
        {
          "indexed": true,
          "internalType": "uint256",
          "name": "tokenId",
          "type": "uint256"
        }
      ],
      "name": "Approval",
      "type": "event"
    },
    {
      "anonymous": false,
      "inputs": [
        {
          "indexed": true,
          "internalType": "address",
          "name": "owner",
          "type": "address"
        },
        {
          "indexed": true,
          "internalType": "address",
          "name": "operator",
          "type": "address"
        },
        {
          "indexed": false,
          "internalType": "bool",
          "name": "approved",
          "type": "bool"
        }
      ],
      "name": "ApprovalForAll",
      "type": "event"
    },
    {
      "anonymous": false,
      "inputs": [
        {
          "indexed": true,
          "internalType": "contract IERC20",
          "name": "token",
          "type": "address"
        },
        {
          "indexed": false,
          "internalType": "address",
          "name": "to",
          "type": "address"
        },
        {
          "indexed": false,
          "internalType": "uint256",
          "name": "amount",
          "type": "uint256"
        }
      ],
      "name": "ERC20PaymentReleased",
      "type": "event"
    },
    {
      "anonymous": false,
      "inputs": [
        {
          "indexed": true,
          "internalType": "address",
          "name": "previousOwner",
          "type": "address"
        },
        {
          "indexed": true,
          "internalType": "address",
          "name": "newOwner",
          "type": "address"
        }
      ],
      "name": "OwnershipTransferred",
      "type": "event"
    },
    {
      "anonymous": false,
      "inputs": [
        {
          "indexed": false,
          "internalType": "address",
          "name": "account",
          "type": "address"
        },
        {
          "indexed": false,
          "internalType": "uint256",
          "name": "shares",
          "type": "uint256"
        }
      ],
      "name": "PayeeAdded",
      "type": "event"
    },
    {
      "anonymous": false,
      "inputs": [
        {
          "indexed": false,
          "internalType": "address",
          "name": "from",
          "type": "address"
        },
        {
          "indexed": false,
          "internalType": "uint256",
          "name": "amount",
          "type": "uint256"
        }
      ],
      "name": "PaymentReceived",
      "type": "event"
    },
    {
      "anonymous": false,
      "inputs": [
        {
          "indexed": false,
          "internalType": "address",
          "name": "to",
          "type": "address"
        },
        {
          "indexed": false,
          "internalType": "uint256",
          "name": "amount",
          "type": "uint256"
        }
      ],
      "name": "PaymentReleased",
      "type": "event"
    },
    {
      "anonymous": false,
      "inputs": [
        {
          "indexed": true,
          "internalType": "address",
          "name": "from",
          "type": "address"
        },
        {
          "indexed": true,
          "internalType": "address",
          "name": "to",
          "type": "address"
        },
        {
          "indexed": true,
          "internalType": "uint256",
          "name": "tokenId",
          "type": "uint256"
        }
      ],
      "name": "Transfer",
      "type": "event"
    },
    {
      "inputs": [
        {
          "internalType": "address",
          "name": "",
          "type": "address"
        }
      ],
      "name": "_presaleClaimed",
      "outputs": [
        {
          "internalType": "uint256",
          "name": "",
          "type": "uint256"
        }
      ],
      "stateMutability": "view",
      "type": "function"
    },
    {
      "inputs": [
        {
          "internalType": "address",
          "name": "to",
          "type": "address"
        },
        {
          "internalType": "uint256",
          "name": "tokenId",
          "type": "uint256"
        }
      ],
      "name": "approve",
      "outputs": [],
      "stateMutability": "nonpayable",
      "type": "function"
    },
    {
      "inputs": [
        {
          "internalType": "address",
          "name": "owner",
          "type": "address"
        }
      ],
      "name": "balanceOf",
      "outputs": [
        {
          "internalType": "uint256",
          "name": "",
          "type": "uint256"
        }
      ],
      "stateMutability": "view",
      "type": "function"
    },
    {
      "inputs": [],
      "name": "baseExtension",
      "outputs": [
        {
          "internalType": "string",
          "name": "",
          "type": "string"
        }
      ],
      "stateMutability": "view",
      "type": "function"
    },
    {
      "inputs": [],
      "name": "baseURI",
      "outputs": [
        {
          "internalType": "string",
          "name": "",
          "type": "string"
        }
      ],
      "stateMutability": "view",
      "type": "function"
    },
    {
      "inputs": [
        {
          "internalType": "uint256",
          "name": "tokenId",
          "type": "uint256"
        }
      ],
      "name": "getApproved",
      "outputs": [
        {
          "internalType": "address",
          "name": "",
          "type": "address"
        }
      ],
      "stateMutability": "view",
      "type": "function"
    },
    {
      "inputs": [
        {
          "internalType": "address",
          "name": "owner",
          "type": "address"
        },
        {
          "internalType": "address",
          "name": "operator",
          "type": "address"
        }
      ],
      "name": "isApprovedForAll",
      "outputs": [
        {
          "internalType": "bool",
          "name": "",
          "type": "bool"
        }
      ],
      "stateMutability": "view",
      "type": "function"
    },
    {
      "inputs": [],
      "name": "maxSupply",
      "outputs": [
        {
          "internalType": "uint256",
          "name": "",
          "type": "uint256"
        }
      ],
      "stateMutability": "view",
      "type": "function"
    },
    {
      "inputs": [],
      "name": "name",
      "outputs": [
        {
          "internalType": "string",
          "name": "",
          "type": "string"
        }
      ],
      "stateMutability": "view",
      "type": "function"
    },
    {
      "inputs": [],
      "name": "notRevealedUri",
      "outputs": [
        {
          "internalType": "string",
          "name": "",
          "type": "string"
        }
      ],
      "stateMutability": "view",
      "type": "function"
    },
    {
      "inputs": [],
      "name": "owner",
      "outputs": [
        {
          "internalType": "address",
          "name": "",
          "type": "address"
        }
      ],
      "stateMutability": "view",
      "type": "function"
    },
    {
      "inputs": [
        {
          "internalType": "uint256",
          "name": "tokenId",
          "type": "uint256"
        }
      ],
      "name": "ownerOf",
      "outputs": [
        {
          "internalType": "address",
          "name": "",
          "type": "address"
        }
      ],
      "stateMutability": "view",
      "type": "function"
    },
    {
      "inputs": [],
      "name": "paused",
      "outputs": [
        {
          "internalType": "bool",
          "name": "",
          "type": "bool"
        }
      ],
      "stateMutability": "view",
      "type": "function"
    },
    {
      "inputs": [
        {
          "internalType": "uint256",
          "name": "index",
          "type": "uint256"
        }
      ],
      "name": "payee",
      "outputs": [
        {
          "internalType": "address",
          "name": "",
          "type": "address"
        }
      ],
      "stateMutability": "view",
      "type": "function"
    },
    {
      "inputs": [],
      "name": "presaleM",
      "outputs": [
        {
          "internalType": "bool",
          "name": "",
          "type": "bool"
        }
      ],
      "stateMutability": "view",
      "type": "function"
    },
    {
      "inputs": [
        {
          "internalType": "address",
          "name": "account",
          "type": "address"
        },
        {
          "internalType": "uint256",
          "name": "_amount",
          "type": "uint256"
        },
        {
          "internalType": "bytes32[]",
          "name": "_proof",
          "type": "bytes32[]"
        }
      ],
      "name": "presaleMint",
      "outputs": [],
      "stateMutability": "payable",
      "type": "function"
    },
    {
      "inputs": [],
      "name": "publicM",
      "outputs": [
        {
          "internalType": "bool",
          "name": "",
          "type": "bool"
        }
      ],
      "stateMutability": "view",
      "type": "function"
    },
    {
      "inputs": [
        {
          "internalType": "uint256",
          "name": "_amount",
          "type": "uint256"
        }
      ],
      "name": "publicSaleMint",
      "outputs": [],
      "stateMutability": "payable",
      "type": "function"
    },
    {
      "inputs": [
        {
          "internalType": "address payable",
          "name": "account",
          "type": "address"
        }
      ],
      "name": "release",
      "outputs": [],
      "stateMutability": "nonpayable",
      "type": "function"
    },
    {
      "inputs": [
        {
          "internalType": "contract IERC20",
          "name": "token",
          "type": "address"
        },
        {
          "internalType": "address",
          "name": "account",
          "type": "address"
        }
      ],
      "name": "release",
      "outputs": [],
      "stateMutability": "nonpayable",
      "type": "function"
    },
    {
      "inputs": [
        {
          "internalType": "contract IERC20",
          "name": "token",
          "type": "address"
        },
        {
          "internalType": "address",
          "name": "account",
          "type": "address"
        }
      ],
      "name": "released",
      "outputs": [
        {
          "internalType": "uint256",
          "name": "",
          "type": "uint256"
        }
      ],
      "stateMutability": "view",
      "type": "function"
    },
    {
      "inputs": [
        {
          "internalType": "address",
          "name": "account",
          "type": "address"
        }
      ],
      "name": "released",
      "outputs": [
        {
          "internalType": "uint256",
          "name": "",
          "type": "uint256"
        }
      ],
      "stateMutability": "view",
      "type": "function"
    },
    {
      "inputs": [],
      "name": "renounceOwnership",
      "outputs": [],
      "stateMutability": "nonpayable",
      "type": "function"
    },
    {
      "inputs": [],
      "name": "reveal",
      "outputs": [],
      "stateMutability": "nonpayable",
      "type": "function"
    },
    {
      "inputs": [],
      "name": "revealed",
      "outputs": [
        {
          "internalType": "bool",
          "name": "",
          "type": "bool"
        }
      ],
      "stateMutability": "view",
      "type": "function"
    },
    {
      "inputs": [],
      "name": "root",
      "outputs": [
        {
          "internalType": "bytes32",
          "name": "",
          "type": "bytes32"
        }
      ],
      "stateMutability": "view",
      "type": "function"
    },
    {
      "inputs": [
        {
          "internalType": "address",
          "name": "from",
          "type": "address"
        },
        {
          "internalType": "address",
          "name": "to",
          "type": "address"
        },
        {
          "internalType": "uint256",
          "name": "tokenId",
          "type": "uint256"
        }
      ],
      "name": "safeTransferFrom",
      "outputs": [],
      "stateMutability": "nonpayable",
      "type": "function"
    },
    {
      "inputs": [
        {
          "internalType": "address",
          "name": "from",
          "type": "address"
        },
        {
          "internalType": "address",
          "name": "to",
          "type": "address"
        },
        {
          "internalType": "uint256",
          "name": "tokenId",
          "type": "uint256"
        },
        {
          "internalType": "bytes",
          "name": "_data",
          "type": "bytes"
        }
      ],
      "name": "safeTransferFrom",
      "outputs": [],
      "stateMutability": "nonpayable",
      "type": "function"
    },
    {
      "inputs": [
        {
          "internalType": "address",
          "name": "operator",
          "type": "address"
        },
        {
          "internalType": "bool",
          "name": "approved",
          "type": "bool"
        }
      ],
      "name": "setApprovalForAll",
      "outputs": [],
      "stateMutability": "nonpayable",
      "type": "function"
    },
    {
      "inputs": [
        {
          "internalType": "string",
          "name": "_newBaseExtension",
          "type": "string"
        }
      ],
      "name": "setBaseExtension",
      "outputs": [],
      "stateMutability": "nonpayable",
      "type": "function"
    },
    {
      "inputs": [
        {
          "internalType": "string",
          "name": "_tokenBaseURI",
          "type": "string"
        }
      ],
      "name": "setBaseURI",
      "outputs": [],
      "stateMutability": "nonpayable",
      "type": "function"
    },
    {
      "inputs": [
        {
          "internalType": "bytes32",
          "name": "merkleroot",
          "type": "bytes32"
        }
      ],
      "name": "setMerkleRoot",
      "outputs": [],
      "stateMutability": "nonpayable",
      "type": "function"
    },
    {
      "inputs": [
        {
          "internalType": "string",
          "name": "_notRevealedURI",
          "type": "string"
        }
      ],
      "name": "setNotRevealedURI",
      "outputs": [],
      "stateMutability": "nonpayable",
      "type": "function"
    },
    {
      "inputs": [
        {
          "internalType": "address",
          "name": "account",
          "type": "address"
        }
      ],
      "name": "shares",
      "outputs": [
        {
          "internalType": "uint256",
          "name": "",
          "type": "uint256"
        }
      ],
      "stateMutability": "view",
      "type": "function"
    },
    {
      "inputs": [
        {
          "internalType": "bytes4",
          "name": "interfaceId",
          "type": "bytes4"
        }
      ],
      "name": "supportsInterface",
      "outputs": [
        {
          "internalType": "bool",
          "name": "",
          "type": "bool"
        }
      ],
      "stateMutability": "view",
      "type": "function"
    },
    {
      "inputs": [],
      "name": "symbol",
      "outputs": [
        {
          "internalType": "string",
          "name": "",
          "type": "string"
        }
      ],
      "stateMutability": "view",
      "type": "function"
    },
    {
      "inputs": [],
      "name": "togglePause",
      "outputs": [],
      "stateMutability": "nonpayable",
      "type": "function"
    },
    {
      "inputs": [],
      "name": "togglePresale",
      "outputs": [],
      "stateMutability": "nonpayable",
      "type": "function"
    },
    {
      "inputs": [],
      "name": "togglePublicSale",
      "outputs": [],
      "stateMutability": "nonpayable",
      "type": "function"
    },
    {
      "inputs": [
        {
          "internalType": "uint256",
          "name": "tokenId",
          "type": "uint256"
        }
      ],
      "name": "tokenURI",
      "outputs": [
        {
          "internalType": "string",
          "name": "",
          "type": "string"
        }
      ],
      "stateMutability": "view",
      "type": "function"
    },
    {
      "inputs": [
        {
          "internalType": "contract IERC20",
          "name": "token",
          "type": "address"
        }
      ],
      "name": "totalReleased",
      "outputs": [
        {
          "internalType": "uint256",
          "name": "",
          "type": "uint256"
        }
      ],
      "stateMutability": "view",
      "type": "function"
    },
    {
      "inputs": [],
      "name": "totalReleased",
      "outputs": [
        {
          "internalType": "uint256",
          "name": "",
          "type": "uint256"
        }
      ],
      "stateMutability": "view",
      "type": "function"
    },
    {
      "inputs": [],
      "name": "totalShares",
      "outputs": [
        {
          "internalType": "uint256",
          "name": "",
          "type": "uint256"
        }
      ],
      "stateMutability": "view",
      "type": "function"
    },
    {
      "inputs": [],
      "name": "totalSupply",
      "outputs": [
        {
          "internalType": "uint256",
          "name": "",
          "type": "uint256"
        }
      ],
      "stateMutability": "view",
      "type": "function"
    },
    {
      "inputs": [
        {
          "internalType": "address",
          "name": "from",
          "type": "address"
        },
        {
          "internalType": "address",
          "name": "to",
          "type": "address"
        },
        {
          "internalType": "uint256",
          "name": "tokenId",
          "type": "uint256"
        }
      ],
      "name": "transferFrom",
      "outputs": [],
      "stateMutability": "nonpayable",
      "type": "function"
    },
    {
      "inputs": [
        {
          "internalType": "address",
          "name": "newOwner",
          "type": "address"
        }
      ],
      "name": "transferOwnership",
      "outputs": [],
      "stateMutability": "nonpayable",
      "type": "function"
    },
    {
      "stateMutability": "payable",
      "type": "receive"
    }
  ],
  "bytecode": "0x6108ae60115560e0604052603660808181529062003a7360a03980516200002f91601391602090910190620006a0565b5060408051808201909152600580825264173539b7b760d91b60209092019182526200005e91601491620006a0565b506015805463ffffffff19169055600360168190556702a303fe4b530000601855604080516060810182526019815260236020820152602891810191909152620000ac91601a91906200072f565b5060408051606081018252739ec26ed2a7fc19348dd9457443c0cb0608e90b6a815273430ed645762c350b68c4716459c069c6f86861196020820152734a5b74a2922afe8d79bf340915ace744ff27cc16918101919091526200011490601b90600362000772565b503480156200012257600080fd5b5060405162003aa938038062003aa9833981016040819052620001459162000814565b601b8054806020026020016040519081016040528092919081815260200182805480156200019d57602002820191906000526020600020905b81546001600160a01b031681526001909101906020018083116200017e575b5050505050601a805480602002602001604051908101604052809291908181526020018280548015620001f057602002820191906000526020600020905b815481526020019060010190808311620001db575b5050604080518082018252600d81526c5365656d656f47656e6573697360981b60208083019182528351808501909452600384526205347560ec1b90840152815191955091935062000247925060009190620006a0565b5080516200025d906001906020840190620006a0565b5050506200027a62000274620003e760201b60201c565b620003eb565b60016007558051825114620002f15760405162461bcd60e51b815260206004820152603260248201527f5061796d656e7453706c69747465723a2070617965657320616e6420736861726044820152710cae640d8cadccee8d040dad2e6dac2e8c6d60731b60648201526084015b60405180910390fd5b6000825111620003445760405162461bcd60e51b815260206004820152601a60248201527f5061796d656e7453706c69747465723a206e6f207061796565730000000000006044820152606401620002e8565b60005b8251811015620003b0576200039b8382815181106200036a576200036a6200090f565b60200260200101518383815181106200038757620003876200090f565b60200260200101516200043d60201b60201c565b80620003a7816200093b565b91505062000347565b505050600f829055601080546001600160a01b0319166001600160a01b038316179055620003de836200062b565b505050620009b1565b3390565b600680546001600160a01b038381166001600160a01b0319831681179093556040519116919082907f8be0079c531659141344cd1fd0a4f28419497f9722a3daafe3b4186f6b6457e090600090a35050565b6001600160a01b038216620004aa5760405162461bcd60e51b815260206004820152602c60248201527f5061796d656e7453706c69747465723a206163636f756e74206973207468652060448201526b7a65726f206164647265737360a01b6064820152608401620002e8565b60008111620004fc5760405162461bcd60e51b815260206004820152601d60248201527f5061796d656e7453706c69747465723a207368617265732061726520300000006044820152606401620002e8565b6001600160a01b0382166000908152600a602052604090205415620005785760405162461bcd60e51b815260206004820152602b60248201527f5061796d656e7453706c69747465723a206163636f756e7420616c726561647960448201526a206861732073686172657360a81b6064820152608401620002e8565b600c8054600181019091557fdf6966c971051c3d54ec59162606531493a51404a002842f56009d7e5cf4a8c70180546001600160a01b0319166001600160a01b0384169081179091556000908152600a60205260409020819055600854620005e290829062000959565b600855604080516001600160a01b0384168152602081018390527f40c340f65e17194d14ddddb073d3c9f888e3cb52b5aae0c6c7706b4fbc905fac910160405180910390a15050565b6006546001600160a01b03163314620006875760405162461bcd60e51b815260206004820181905260248201527f4f776e61626c653a2063616c6c6572206973206e6f7420746865206f776e65726044820152606401620002e8565b80516200069c906012906020840190620006a0565b5050565b828054620006ae9062000974565b90600052602060002090601f016020900481019282620006d257600085556200071d565b82601f10620006ed57805160ff19168380011785556200071d565b828001600101855582156200071d579182015b828111156200071d57825182559160200191906001019062000700565b506200072b929150620007ca565b5090565b8280548282559060005260206000209081019282156200071d579160200282015b828111156200071d578251829060ff1690559160200191906001019062000750565b8280548282559060005260206000209081019282156200071d579160200282015b828111156200071d57825182546001600160a01b0319166001600160a01b0390911617825560209092019160019091019062000793565b5b808211156200072b5760008155600101620007cb565b634e487b7160e01b600052604160045260246000fd5b80516001600160a01b03811681146200080f57600080fd5b919050565b6000806000606084860312156200082a57600080fd5b83516001600160401b03808211156200084257600080fd5b818601915086601f8301126200085757600080fd5b8151818111156200086c576200086c620007e1565b604051601f8201601f19908116603f01168101908382118183101715620008975762000897620007e1565b81604052828152602093508984848701011115620008b457600080fd5b600091505b82821015620008d85784820184015181830185015290830190620008b9565b82821115620008ea5760008484830101525b80975050505080860151935050506200090660408501620007f7565b90509250925092565b634e487b7160e01b600052603260045260246000fd5b634e487b7160e01b600052601160045260246000fd5b600060001982141562000952576200095262000925565b5060010190565b600082198211156200096f576200096f62000925565b500190565b600181811c908216806200098957607f821691505b60208210811415620009ab57634e487b7160e01b600052602260045260246000fd5b50919050565b6130b280620009c16000396000f3fe6080604052600436106102815760003560e01c80638cc4de191161014f578063c6682862116100c1578063e222c7f91161007a578063e222c7f9146107e9578063e33b7de3146107fe578063e985e9c514610813578063ebf0c71714610833578063f2c4ce1e14610849578063f2fde38b1461086957600080fd5b8063c668286214610712578063c87b56dd14610727578063ce7c2ac214610747578063d5abeb011461077d578063d79779b214610793578063da3ef23f146107c957600080fd5b8063a22cb46511610113578063a22cb46514610674578063a45063c014610694578063a475b5dd146106b5578063b3ab66b0146106ca578063b88d4fde146106dd578063c4ae3168146106fd57600080fd5b80638cc4de19146105cb5780638da5cb5b146105f8578063954dc3e31461061657806395d89b41146106295780639852595c1461063e57600080fd5b8063406072a9116101f35780636352211e116101ac5780636352211e146105215780636c0360eb1461054157806370a0823114610556578063715018a6146105765780637cb647591461058b5780638b83209b146105ab57600080fd5b8063406072a91461044257806342842e0e1461048857806348b75044146104a857806351830227146104c857806355f804b3146104e75780635c975abb1461050757600080fd5b80631798d58b116102455780631798d58b1461039557806318160ddd146103b557806319165587146103d857806323b872dd146103f857806334393743146104185780633a98ef391461042d57600080fd5b806301ffc9a7146102cf57806306fdde0314610304578063081812fc14610326578063081c8c441461035e578063095ea7b31461037357600080fd5b366102ca577f6ef95f06320e7a25a04a175ca677b7052bdd97131872c2192525a629f51be77033604080516001600160a01b0390921682523460208301520160405180910390a1005b600080fd5b3480156102db57600080fd5b506102ef6102ea3660046127e4565b610889565b60405190151581526020015b60405180910390f35b34801561031057600080fd5b506103196108db565b6040516102fb9190612859565b34801561033257600080fd5b5061034661034136600461286c565b61096d565b6040516001600160a01b0390911681526020016102fb565b34801561036a57600080fd5b50610319610a07565b34801561037f57600080fd5b5061039361038e36600461289a565b610a95565b005b3480156103a157600080fd5b506015546102ef9062010000900460ff1681565b3480156103c157600080fd5b506103ca610bab565b6040519081526020016102fb565b3480156103e457600080fd5b506103936103f33660046128c6565b610bbb565b34801561040457600080fd5b506103936104133660046128e3565b610ce9565b34801561042457600080fd5b50610393610d1a565b34801561043957600080fd5b506008546103ca565b34801561044e57600080fd5b506103ca61045d366004612924565b6001600160a01b039182166000908152600e6020908152604080832093909416825291909152205490565b34801561049457600080fd5b506103936104a33660046128e3565b610d63565b3480156104b457600080fd5b506103936104c3366004612924565b610d7e565b3480156104d457600080fd5b506015546102ef90610100900460ff1681565b3480156104f357600080fd5b506103936105023660046129e9565b610f66565b34801561051357600080fd5b506015546102ef9060ff1681565b34801561052d57600080fd5b5061034661053c36600461286c565b610fa7565b34801561054d57600080fd5b5061031961101e565b34801561056257600080fd5b506103ca6105713660046128c6565b61102b565b34801561058257600080fd5b506103936110b2565b34801561059757600080fd5b506103936105a636600461286c565b6110e8565b3480156105b757600080fd5b506103466105c636600461286c565b611117565b3480156105d757600080fd5b506103ca6105e63660046128c6565b60176020526000908152604090205481565b34801561060457600080fd5b506006546001600160a01b0316610346565b610393610624366004612a32565b611147565b34801561063557600080fd5b50610319611424565b34801561064a57600080fd5b506103ca6106593660046128c6565b6001600160a01b03166000908152600b602052604090205490565b34801561068057600080fd5b5061039361068f366004612acc565b611433565b3480156106a057600080fd5b506015546102ef906301000000900460ff1681565b3480156106c157600080fd5b5061039361143e565b6103936106d836600461286c565b611479565b3480156106e957600080fd5b506103936106f8366004612afa565b61162a565b34801561070957600080fd5b50610393611662565b34801561071e57600080fd5b506103196116a0565b34801561073357600080fd5b5061031961074236600461286c565b6116ad565b34801561075357600080fd5b506103ca6107623660046128c6565b6001600160a01b03166000908152600a602052604090205490565b34801561078957600080fd5b506103ca60115481565b34801561079f57600080fd5b506103ca6107ae3660046128c6565b6001600160a01b03166000908152600d602052604090205490565b3480156107d557600080fd5b506103936107e43660046129e9565b61182c565b3480156107f557600080fd5b50610393611869565b34801561080a57600080fd5b506009546103ca565b34801561081f57600080fd5b506102ef61082e366004612924565b6118b4565b34801561083f57600080fd5b506103ca600f5481565b34801561085557600080fd5b506103936108643660046129e9565b611984565b34801561087557600080fd5b506103936108843660046128c6565b6119c1565b60006001600160e01b031982166380ac58cd60e01b14806108ba57506001600160e01b03198216635b5e139f60e01b145b806108d557506301ffc9a760e01b6001600160e01b03198316145b92915050565b6060600080546108ea90612b7a565b80601f016020809104026020016040519081016040528092919081815260200182805461091690612b7a565b80156109635780601f1061093857610100808354040283529160200191610963565b820191906000526020600020905b81548152906001019060200180831161094657829003601f168201915b5050505050905090565b6000818152600260205260408120546001600160a01b03166109eb5760405162461bcd60e51b815260206004820152602c60248201527f4552433732313a20617070726f76656420717565727920666f72206e6f6e657860448201526b34b9ba32b73a103a37b5b2b760a11b60648201526084015b60405180910390fd5b506000908152600460205260409020546001600160a01b031690565b60138054610a1490612b7a565b80601f0160208091040260200160405190810160405280929190818152602001828054610a4090612b7a565b8015610a8d5780601f10610a6257610100808354040283529160200191610a8d565b820191906000526020600020905b815481529060010190602001808311610a7057829003601f168201915b505050505081565b6000610aa082610fa7565b9050806001600160a01b0316836001600160a01b03161415610b0e5760405162461bcd60e51b815260206004820152602160248201527f4552433732313a20617070726f76616c20746f2063757272656e74206f776e656044820152603960f91b60648201526084016109e2565b336001600160a01b0382161480610b2a5750610b2a81336118b4565b610b9c5760405162461bcd60e51b815260206004820152603860248201527f4552433732313a20617070726f76652063616c6c6572206973206e6f74206f7760448201527f6e6572206e6f7220617070726f76656420666f7220616c6c000000000000000060648201526084016109e2565b610ba68383611a5c565b505050565b6000610bb660195490565b905090565b6001600160a01b0381166000908152600a6020526040902054610bf05760405162461bcd60e51b81526004016109e290612bb5565b6000610bfb60095490565b610c059047612c11565b90506000610c328383610c2d866001600160a01b03166000908152600b602052604090205490565b611aca565b905080610c515760405162461bcd60e51b81526004016109e290612c29565b6001600160a01b0383166000908152600b602052604081208054839290610c79908490612c11565b925050819055508060096000828254610c929190612c11565b90915550610ca290508382611b08565b604080516001600160a01b0385168152602081018390527fdf20fd1e76bc69d672e4814fafb2c449bba3a5369d8359adf9e05e6fde87b056910160405180910390a1505050565b610cf33382611c21565b610d0f5760405162461bcd60e51b81526004016109e290612c74565b610ba6838383611cf0565b6006546001600160a01b03163314610d445760405162461bcd60e51b81526004016109e290612cc5565b6015805462ff0000198116620100009182900460ff1615909102179055565b610ba68383836040518060200160405280600081525061162a565b6001600160a01b0381166000908152600a6020526040902054610db35760405162461bcd60e51b81526004016109e290612bb5565b6001600160a01b0382166000908152600d60205260408120546040516370a0823160e01b81523060048201526001600160a01b038516906370a082319060240160206040518083038186803b158015610e0b57600080fd5b505afa158015610e1f573d6000803e3d6000fd5b505050506040513d601f19601f82011682018060405250810190610e439190612cfa565b610e4d9190612c11565b90506000610e868383610c2d87876001600160a01b039182166000908152600e6020908152604080832093909416825291909152205490565b905080610ea55760405162461bcd60e51b81526004016109e290612c29565b6001600160a01b038085166000908152600e6020908152604080832093871683529290529081208054839290610edc908490612c11565b90915550506001600160a01b0384166000908152600d602052604081208054839290610f09908490612c11565b90915550610f1a9050848483611e8c565b604080516001600160a01b038581168252602082018490528616917f3be5b7a71e84ed12875d241991c70855ac5817d847039e17a9d895c1ceb0f18a910160405180910390a250505050565b6006546001600160a01b03163314610f905760405162461bcd60e51b81526004016109e290612cc5565b8051610fa3906012906020840190612735565b5050565b6000818152600260205260408120546001600160a01b0316806108d55760405162461bcd60e51b815260206004820152602960248201527f4552433732313a206f776e657220717565727920666f72206e6f6e657869737460448201526832b73a103a37b5b2b760b91b60648201526084016109e2565b60128054610a1490612b7a565b60006001600160a01b0382166110965760405162461bcd60e51b815260206004820152602a60248201527f4552433732313a2062616c616e636520717565727920666f7220746865207a65604482015269726f206164647265737360b01b60648201526084016109e2565b506001600160a01b031660009081526003602052604090205490565b6006546001600160a01b031633146110dc5760405162461bcd60e51b81526004016109e290612cc5565b6110e66000611ede565b565b6006546001600160a01b031633146111125760405162461bcd60e51b81526004016109e290612cc5565b600f55565b6000600c828154811061112c5761112c612d13565b6000918252602090912001546001600160a01b031692915050565b81816111be82828080602002602001604051908101604052809392919081815260200183836020028082843760009201919091525050600f546040516bffffffffffffffffffffffff193360601b166020820152909250603401905060405160208183030381529060405280519060200120611f30565b15156001146111df5760405162461bcd60e51b81526004016109e290612d29565b3332146111fe5760405162461bcd60e51b81526004016109e290612d29565b336001600160a01b038716146112565760405162461bcd60e51b815260206004820152601a60248201527f5365656d656f47656e657369733a204e6f7420616c6c6f77656400000000000060448201526064016109e2565b60155462010000900460ff166112ae5760405162461bcd60e51b815260206004820152601d60248201527f5365656d656f47656e657369733a2050726573616c65206973204f464600000060448201526064016109e2565b60155460ff16156112d15760405162461bcd60e51b81526004016109e290612d55565b6016548511156112f35760405162461bcd60e51b81526004016109e290612d96565b60165433600090815260176020526040902054611311908790612c11565b111561132f5760405162461bcd60e51b81526004016109e290612d96565b600061133a60195490565b60115490915061134a8783612c11565b11156113a35760405162461bcd60e51b815260206004820152602260248201527f5365656d656f47656e657369733a206d617820737570706c7920657863656564604482015261195960f21b60648201526084016109e2565b34866018546113b29190612de2565b11156113d05760405162461bcd60e51b81526004016109e290612e01565b33600090815260176020526040812080548892906113ef908490612c11565b90915550600090505b8681101561141a57611408611f46565b8061141281612e46565b9150506113f8565b5050505050505050565b6060600180546108ea90612b7a565b610fa3338383611fcb565b6006546001600160a01b031633146114685760405162461bcd60e51b81526004016109e290612cc5565b6015805461ff001916610100179055565b3332146114985760405162461bcd60e51b81526004016109e290612d29565b6015546301000000900460ff166114f15760405162461bcd60e51b815260206004820181905260248201527f5365656d656f47656e657369733a205075626c696353616c65206973204f464660448201526064016109e2565b60155460ff16156115145760405162461bcd60e51b81526004016109e290612d55565b600081116115645760405162461bcd60e51b815260206004820152601a60248201527f5365656d656f47656e657369733a207a65726f20616d6f756e7400000000000060448201526064016109e2565b600061156f60195490565b60115490915061157f8383612c11565b11156115d85760405162461bcd60e51b815260206004820152602260248201527f5365656d656f47656e657369733a204d617820737570706c7920657863656564604482015261195960f21b60648201526084016109e2565b34826018546115e79190612de2565b11156116055760405162461bcd60e51b81526004016109e290612e01565b60005b82811015610ba657611618611f46565b8061162281612e46565b915050611608565b6116343383611c21565b6116505760405162461bcd60e51b81526004016109e290612c74565b61165c8484848461209a565b50505050565b6006546001600160a01b0316331461168c5760405162461bcd60e51b81526004016109e290612cc5565b6015805460ff19811660ff90911615179055565b60148054610a1490612b7a565b6000818152600260205260409020546060906001600160a01b031661172c5760405162461bcd60e51b815260206004820152602f60248201527f4552433732314d657461646174613a2055524920717565727920666f72206e6f60448201526e3732bc34b9ba32b73a103a37b5b2b760891b60648201526084016109e2565b601554610100900460ff166117cd576013805461174890612b7a565b80601f016020809104026020016040519081016040528092919081815260200182805461177490612b7a565b80156117c15780601f10611796576101008083540402835291602001916117c1565b820191906000526020600020905b8154815290600101906020018083116117a457829003601f168201915b50505050509050919050565b60006117d76120cd565b905060008151116117f75760405180602001604052806000815250611825565b80611801846120dc565b601460405160200161181593929190612e61565b6040516020818303038152906040525b9392505050565b6006546001600160a01b031633146118565760405162461bcd60e51b81526004016109e290612cc5565b8051610fa3906014906020840190612735565b6006546001600160a01b031633146118935760405162461bcd60e51b81526004016109e290612cc5565b6015805463ff00000019811663010000009182900460ff1615909102179055565b60105460405163c455279160e01b81526001600160a01b03848116600483015260009281169190841690829063c45527919060240160206040518083038186803b15801561190157600080fd5b505afa158015611915573d6000803e3d6000fd5b505050506040513d601f19601f820116820180604052508101906119399190612f25565b6001600160a01b031614156119525760019150506108d5565b6001600160a01b0380851660009081526005602090815260408083209387168352929052205460ff165b949350505050565b6006546001600160a01b031633146119ae5760405162461bcd60e51b81526004016109e290612cc5565b8051610fa3906013906020840190612735565b6006546001600160a01b031633146119eb5760405162461bcd60e51b81526004016109e290612cc5565b6001600160a01b038116611a505760405162461bcd60e51b815260206004820152602660248201527f4f776e61626c653a206e6577206f776e657220697320746865207a65726f206160448201526564647265737360d01b60648201526084016109e2565b611a5981611ede565b50565b600081815260046020526040902080546001600160a01b0319166001600160a01b0384169081179091558190611a9182610fa7565b6001600160a01b03167f8c5be1e5ebec7d5bd14f71427d1e84f3dd0314c0f7b2291e5b200ac8c7c3b92560405160405180910390a45050565b6008546001600160a01b0384166000908152600a602052604081205490918391611af49086612de2565b611afe9190612f58565b61197c9190612f6c565b80471015611b585760405162461bcd60e51b815260206004820152601d60248201527f416464726573733a20696e73756666696369656e742062616c616e636500000060448201526064016109e2565b6000826001600160a01b03168260405160006040518083038185875af1925050503d8060008114611ba5576040519150601f19603f3d011682016040523d82523d6000602084013e611baa565b606091505b5050905080610ba65760405162461bcd60e51b815260206004820152603a60248201527f416464726573733a20756e61626c6520746f2073656e642076616c75652c207260448201527f6563697069656e74206d6179206861766520726576657274656400000000000060648201526084016109e2565b6000818152600260205260408120546001600160a01b0316611c9a5760405162461bcd60e51b815260206004820152602c60248201527f4552433732313a206f70657261746f7220717565727920666f72206e6f6e657860448201526b34b9ba32b73a103a37b5b2b760a11b60648201526084016109e2565b6000611ca583610fa7565b9050806001600160a01b0316846001600160a01b03161480611ce05750836001600160a01b0316611cd58461096d565b6001600160a01b0316145b8061197c575061197c81856118b4565b826001600160a01b0316611d0382610fa7565b6001600160a01b031614611d675760405162461bcd60e51b815260206004820152602560248201527f4552433732313a207472616e736665722066726f6d20696e636f72726563742060448201526437bbb732b960d91b60648201526084016109e2565b6001600160a01b038216611dc95760405162461bcd60e51b8152602060048201526024808201527f4552433732313a207472616e7366657220746f20746865207a65726f206164646044820152637265737360e01b60648201526084016109e2565b611dd4600082611a5c565b6001600160a01b0383166000908152600360205260408120805460019290611dfd908490612f6c565b90915550506001600160a01b0382166000908152600360205260408120805460019290611e2b908490612c11565b909155505060008181526002602052604080822080546001600160a01b0319166001600160a01b0386811691821790925591518493918716917fddf252ad1be2c89b69c2b068fc378daa952ba7f163c4a11628f55a4df523b3ef91a4505050565b604080516001600160a01b038416602482015260448082018490528251808303909101815260649091019091526020810180516001600160e01b031663a9059cbb60e01b179052610ba69084906121da565b600680546001600160a01b038381166001600160a01b0319831681179093556040519116919082907f8be0079c531659141344cd1fd0a4f28419497f9722a3daafe3b4186f6b6457e090600090a35050565b600082611f3d85846122ac565b14949350505050565b60026007541415611f995760405162461bcd60e51b815260206004820152601f60248201527f5265656e7472616e637947756172643a207265656e7472616e742063616c6c0060448201526064016109e2565b6002600755611fac601980546001019055565b6000611fb760195490565b9050611fc33382612320565b506001600755565b816001600160a01b0316836001600160a01b0316141561202d5760405162461bcd60e51b815260206004820152601960248201527f4552433732313a20617070726f766520746f2063616c6c65720000000000000060448201526064016109e2565b6001600160a01b03838116600081815260056020908152604080832094871680845294825291829020805460ff191686151590811790915591519182527f17307eab39ab6107e8899845ad3d59bd9653f200f220920489ca2b5937696c31910160405180910390a3505050565b6120a5848484611cf0565b6120b18484848461233a565b61165c5760405162461bcd60e51b81526004016109e290612f83565b6060601280546108ea90612b7a565b6060816121005750506040805180820190915260018152600360fc1b602082015290565b8160005b811561212a578061211481612e46565b91506121239050600a83612f58565b9150612104565b60008167ffffffffffffffff8111156121455761214561295d565b6040519080825280601f01601f19166020018201604052801561216f576020820181803683370190505b5090505b841561197c57612184600183612f6c565b9150612191600a86612fd5565b61219c906030612c11565b60f81b8183815181106121b1576121b1612d13565b60200101906001600160f81b031916908160001a9053506121d3600a86612f58565b9450612173565b600061222f826040518060400160405280602081526020017f5361666545524332303a206c6f772d6c6576656c2063616c6c206661696c6564815250856001600160a01b03166124479092919063ffffffff16565b805190915015610ba6578080602001905181019061224d9190612fe9565b610ba65760405162461bcd60e51b815260206004820152602a60248201527f5361666545524332303a204552433230206f7065726174696f6e20646964206e6044820152691bdd081cdd58d8d9595960b21b60648201526084016109e2565b600081815b84518110156123185760008582815181106122ce576122ce612d13565b602002602001015190508083116122f45760008381526020829052604090209250612305565b600081815260208490526040902092505b508061231081612e46565b9150506122b1565b509392505050565b610fa3828260405180602001604052806000815250612456565b60006001600160a01b0384163b1561243c57604051630a85bd0160e11b81526001600160a01b0385169063150b7a029061237e903390899088908890600401613006565b602060405180830381600087803b15801561239857600080fd5b505af19250505080156123c8575060408051601f3d908101601f191682019092526123c591810190613043565b60015b612422573d8080156123f6576040519150601f19603f3d011682016040523d82523d6000602084013e6123fb565b606091505b50805161241a5760405162461bcd60e51b81526004016109e290612f83565b805181602001fd5b6001600160e01b031916630a85bd0160e11b14905061197c565b506001949350505050565b606061197c8484600085612489565b61246083836125ba565b61246d600084848461233a565b610ba65760405162461bcd60e51b81526004016109e290612f83565b6060824710156124ea5760405162461bcd60e51b815260206004820152602660248201527f416464726573733a20696e73756666696369656e742062616c616e636520666f6044820152651c8818d85b1b60d21b60648201526084016109e2565b6001600160a01b0385163b6125415760405162461bcd60e51b815260206004820152601d60248201527f416464726573733a2063616c6c20746f206e6f6e2d636f6e747261637400000060448201526064016109e2565b600080866001600160a01b0316858760405161255d9190613060565b60006040518083038185875af1925050503d806000811461259a576040519150601f19603f3d011682016040523d82523d6000602084013e61259f565b606091505b50915091506125af8282866126fc565b979650505050505050565b6001600160a01b0382166126105760405162461bcd60e51b815260206004820181905260248201527f4552433732313a206d696e7420746f20746865207a65726f206164647265737360448201526064016109e2565b6000818152600260205260409020546001600160a01b0316156126755760405162461bcd60e51b815260206004820152601c60248201527f4552433732313a20746f6b656e20616c7265616479206d696e7465640000000060448201526064016109e2565b6001600160a01b038216600090815260036020526040812080546001929061269e908490612c11565b909155505060008181526002602052604080822080546001600160a01b0319166001600160a01b03861690811790915590518392907fddf252ad1be2c89b69c2b068fc378daa952ba7f163c4a11628f55a4df523b3ef908290a45050565b6060831561270b575081611825565b82511561271b5782518084602001fd5b8160405162461bcd60e51b81526004016109e29190612859565b82805461274190612b7a565b90600052602060002090601f01602090048101928261276357600085556127a9565b82601f1061277c57805160ff19168380011785556127a9565b828001600101855582156127a9579182015b828111156127a957825182559160200191906001019061278e565b506127b59291506127b9565b5090565b5b808211156127b557600081556001016127ba565b6001600160e01b031981168114611a5957600080fd5b6000602082840312156127f657600080fd5b8135611825816127ce565b60005b8381101561281c578181015183820152602001612804565b8381111561165c5750506000910152565b60008151808452612845816020860160208601612801565b601f01601f19169290920160200192915050565b602081526000611825602083018461282d565b60006020828403121561287e57600080fd5b5035919050565b6001600160a01b0381168114611a5957600080fd5b600080604083850312156128ad57600080fd5b82356128b881612885565b946020939093013593505050565b6000602082840312156128d857600080fd5b813561182581612885565b6000806000606084860312156128f857600080fd5b833561290381612885565b9250602084013561291381612885565b929592945050506040919091013590565b6000806040838503121561293757600080fd5b823561294281612885565b9150602083013561295281612885565b809150509250929050565b634e487b7160e01b600052604160045260246000fd5b600067ffffffffffffffff8084111561298e5761298e61295d565b604051601f8501601f19908116603f011681019082821181831017156129b6576129b661295d565b816040528093508581528686860111156129cf57600080fd5b858560208301376000602087830101525050509392505050565b6000602082840312156129fb57600080fd5b813567ffffffffffffffff811115612a1257600080fd5b8201601f81018413612a2357600080fd5b61197c84823560208401612973565b60008060008060608587031215612a4857600080fd5b8435612a5381612885565b935060208501359250604085013567ffffffffffffffff80821115612a7757600080fd5b818701915087601f830112612a8b57600080fd5b813581811115612a9a57600080fd5b8860208260051b8501011115612aaf57600080fd5b95989497505060200194505050565b8015158114611a5957600080fd5b60008060408385031215612adf57600080fd5b8235612aea81612885565b9150602083013561295281612abe565b60008060008060808587031215612b1057600080fd5b8435612b1b81612885565b93506020850135612b2b81612885565b925060408501359150606085013567ffffffffffffffff811115612b4e57600080fd5b8501601f81018713612b5f57600080fd5b612b6e87823560208401612973565b91505092959194509250565b600181811c90821680612b8e57607f821691505b60208210811415612baf57634e487b7160e01b600052602260045260246000fd5b50919050565b60208082526026908201527f5061796d656e7453706c69747465723a206163636f756e7420686173206e6f2060408201526573686172657360d01b606082015260800190565b634e487b7160e01b600052601160045260246000fd5b60008219821115612c2457612c24612bfb565b500190565b6020808252602b908201527f5061796d656e7453706c69747465723a206163636f756e74206973206e6f742060408201526a191d59481c185e5b595b9d60aa1b606082015260800190565b60208082526031908201527f4552433732313a207472616e736665722063616c6c6572206973206e6f74206f6040820152701ddb995c881b9bdc88185c1c1c9bdd9959607a1b606082015260800190565b6020808252818101527f4f776e61626c653a2063616c6c6572206973206e6f7420746865206f776e6572604082015260600190565b600060208284031215612d0c57600080fd5b5051919050565b634e487b7160e01b600052603260045260246000fd5b6020808252601290820152712737ba1030b63637bbb2b21037b934b3b4b760711b604082015260600190565b60208082526021908201527f5365656d656f47656e657369733a20436f6e74726163742069732070617573656040820152601960fa1b606082015260800190565b6020808252602c908201527f5365656d656f47656e657369733a20596f752063616e2774206d696e7420736f60408201526b206d75636820746f6b656e7360a01b606082015260800190565b6000816000190483118215151615612dfc57612dfc612bfb565b500290565b60208082526025908201527f5365656d656f47656e657369733a204e6f7420656e6f75676820657468657273604082015264081cd95b9d60da1b606082015260800190565b6000600019821415612e5a57612e5a612bfb565b5060010190565b600084516020612e748285838a01612801565b855191840191612e878184848a01612801565b8554920191600090600181811c9080831680612ea457607f831692505b858310811415612ec257634e487b7160e01b85526022600452602485fd5b808015612ed65760018114612ee757612f14565b60ff19851688528388019550612f14565b60008b81526020902060005b85811015612f0c5781548a820152908401908801612ef3565b505083880195505b50939b9a5050505050505050505050565b600060208284031215612f3757600080fd5b815161182581612885565b634e487b7160e01b600052601260045260246000fd5b600082612f6757612f67612f42565b500490565b600082821015612f7e57612f7e612bfb565b500390565b60208082526032908201527f4552433732313a207472616e7366657220746f206e6f6e20455243373231526560408201527131b2b4bb32b91034b6b83632b6b2b73a32b960711b606082015260800190565b600082612fe457612fe4612f42565b500690565b600060208284031215612ffb57600080fd5b815161182581612abe565b6001600160a01b03858116825284166020820152604081018390526080606082018190526000906130399083018461282d565b9695505050505050565b60006020828403121561305557600080fd5b8151611825816127ce565b60008251613072818460208701612801565b919091019291505056fea264697066735822122028e2cc3399e396a04becf1c56837abd862d2edaed4d2a06a36b28726abff526764736f6c63430008090033697066733a2f2f516d634a7375573569754b44353852795269776b344d4e63616d696e61616b7867774650616d6f6e7873426b70432f",
  "linkReferences": {},
  "deployedLinkReferences": {}
}